{
  "contractName": "DeviceManager",
  "abi": [
    {
      "constant": false,
      "inputs": [
        {
          "name": "_deviceId",
          "type": "uint256"
        },
        {
          "name": "_newMetadataHash",
          "type": "bytes32"
        }
      ],
      "name": "updateMetadataHash",
      "outputs": [],
      "payable": false,
      "stateMutability": "nonpayable",
      "type": "function",
      "signature": "0x07f63700"
    },
    {
      "constant": true,
      "inputs": [
        {
          "name": "_deviceId",
          "type": "uint256"
        }
      ],
      "name": "isDeviceAnEntity",
      "outputs": [
        {
          "name": "",
          "type": "bool"
        }
      ],
      "payable": false,
      "stateMutability": "view",
      "type": "function",
      "signature": "0x0bcb88e8"
    },
    {
      "constant": true,
      "inputs": [
        {
          "name": "",
          "type": "uint256"
        }
      ],
      "name": "devices",
      "outputs": [
        {
          "name": "owner",
          "type": "address"
        },
        {
          "name": "identifier",
          "type": "bytes32"
        },
        {
          "name": "metadataHash",
          "type": "bytes32"
        },
        {
          "name": "firmwareHash",
          "type": "bytes32"
        }
      ],
      "payable": false,
      "stateMutability": "view",
      "type": "function",
      "signature": "0x10ff8e31"
    },
    {
      "constant": true,
      "inputs": [
        {
          "name": "",
          "type": "address"
        }
      ],
      "name": "ownerDeviceCount",
      "outputs": [
        {
          "name": "",
          "type": "uint256"
        }
      ],
      "payable": false,
      "stateMutability": "view",
      "type": "function",
      "signature": "0x2a08e601"
    },
    {
      "constant": false,
      "inputs": [
        {
          "name": "_signatureId",
          "type": "uint256"
        }
      ],
      "name": "revokeSignature",
      "outputs": [],
      "payable": false,
      "stateMutability": "nonpayable",
      "type": "function",
      "signature": "0x3da1f79a"
    },
    {
      "constant": false,
      "inputs": [
        {
          "name": "_identifier",
          "type": "bytes32"
        },
        {
          "name": "_metadataHash",
          "type": "bytes32"
        },
        {
          "name": "_firmwareHash",
          "type": "bytes32"
        }
      ],
      "name": "createDevice",
      "outputs": [
        {
          "name": "",
          "type": "uint256"
        }
      ],
      "payable": false,
      "stateMutability": "nonpayable",
      "type": "function",
      "signature": "0x4840c63b"
    },
    {
      "constant": true,
      "inputs": [
        {
          "name": "_owner",
          "type": "address"
        }
      ],
      "name": "getDevicesByOwner",
      "outputs": [
        {
          "name": "",
          "type": "uint256[]"
        }
      ],
      "payable": false,
      "stateMutability": "view",
      "type": "function",
      "signature": "0x51b0e987"
    },
    {
      "constant": false,
      "inputs": [
        {
          "name": "_deviceId",
          "type": "uint256"
        },
        {
          "name": "_newIdentifier",
          "type": "bytes32"
        }
      ],
      "name": "updateIdentifier",
      "outputs": [],
      "payable": false,
      "stateMutability": "nonpayable",
      "type": "function",
      "signature": "0x533293ab"
    },
    {
      "constant": false,
      "inputs": [
        {
          "name": "_data",
          "type": "string"
        }
      ],
      "name": "updateEntityData",
      "outputs": [],
      "payable": false,
      "stateMutability": "nonpayable",
      "type": "function",
      "signature": "0x5a3f79d2"
    },
    {
      "constant": false,
      "inputs": [
        {
          "name": "_deviceId",
          "type": "uint256"
        },
        {
          "name": "_newFirmwareHash",
          "type": "bytes32"
        }
      ],
      "name": "updateFirmwareHash",
      "outputs": [],
      "payable": false,
      "stateMutability": "nonpayable",
      "type": "function",
      "signature": "0x6231fb0b"
    },
    {
      "constant": true,
      "inputs": [
        {
          "name": "",
          "type": "uint256"
        }
      ],
      "name": "signatures",
      "outputs": [
        {
          "name": "signer",
          "type": "address"
        },
        {
          "name": "deviceId",
          "type": "uint256"
        },
        {
          "name": "expiryTime",
          "type": "uint256"
        },
        {
          "name": "revoked",
          "type": "bool"
        }
      ],
      "payable": false,
      "stateMutability": "view",
      "type": "function",
      "signature": "0x8be10194"
    },
    {
      "constant": true,
      "inputs": [
        {
          "name": "_deviceId",
          "type": "uint256"
        },
        {
          "name": "_messageHash",
          "type": "bytes32"
        },
        {
          "name": "_signature",
          "type": "bytes"
        }
      ],
      "name": "isValidEthMessage",
      "outputs": [
        {
          "name": "",
          "type": "bool"
        }
      ],
      "payable": false,
      "stateMutability": "view",
      "type": "function",
      "signature": "0x8e9075be"
    },
    {
      "constant": true,
      "inputs": [
        {
          "name": "_deviceId",
          "type": "uint256"
        }
      ],
      "name": "getActiveSignaturesForDevice",
      "outputs": [
        {
          "name": "",
          "type": "uint256[]"
        }
      ],
      "payable": false,
      "stateMutability": "view",
      "type": "function",
      "signature": "0x9de9662d"
    },
    {
      "constant": false,
      "inputs": [
        {
          "name": "_deviceId",
          "type": "uint256"
        },
        {
          "name": "_expiryTime",
          "type": "uint256"
        }
      ],
      "name": "signDevice",
      "outputs": [
        {
          "name": "",
          "type": "uint256"
        }
      ],
      "payable": false,
      "stateMutability": "nonpayable",
      "type": "function",
      "signature": "0xaa554c9d"
    },
    {
      "constant": true,
      "inputs": [
        {
          "name": "",
          "type": "address"
        }
      ],
      "name": "ownerToEntity",
      "outputs": [
        {
          "name": "data",
          "type": "string"
        }
      ],
      "payable": false,
      "stateMutability": "view",
      "type": "function",
      "signature": "0xacbcb507"
    },
    {
      "constant": true,
      "inputs": [
        {
          "name": "",
          "type": "uint256"
        }
      ],
      "name": "deviceSignatureCount",
      "outputs": [
        {
          "name": "",
          "type": "uint256"
        }
      ],
      "payable": false,
      "stateMutability": "view",
      "type": "function",
      "signature": "0xb0bd9fda"
    },
    {
      "constant": true,
      "inputs": [
        {
          "name": "_deviceId",
          "type": "uint256"
        },
        {
          "name": "_firmwareHash",
          "type": "bytes32"
        }
      ],
      "name": "isValidFirmwareHash",
      "outputs": [
        {
          "name": "",
          "type": "bool"
        }
      ],
      "payable": false,
      "stateMutability": "view",
      "type": "function",
      "signature": "0xb22d439d"
    },
    {
      "constant": true,
      "inputs": [
        {
          "name": "_deviceId",
          "type": "uint256"
        },
        {
          "name": "_proof",
          "type": "bytes32[]"
        },
        {
          "name": "_leaf",
          "type": "bytes32"
        }
      ],
      "name": "isValidMetadataMember",
      "outputs": [
        {
          "name": "",
          "type": "bool"
        }
      ],
      "payable": false,
      "stateMutability": "view",
      "type": "function",
      "signature": "0xc40613df"
    },
    {
      "constant": false,
      "inputs": [
        {
          "name": "_deviceId",
          "type": "uint256"
        },
        {
          "name": "_to",
          "type": "address"
        }
      ],
      "name": "transferDevice",
      "outputs": [],
      "payable": false,
      "stateMutability": "nonpayable",
      "type": "function",
      "signature": "0xee235783"
    },
    {
      "anonymous": false,
      "inputs": [
        {
          "indexed": true,
          "name": "deviceId",
          "type": "uint256"
        },
        {
          "indexed": false,
          "name": "oldOwner",
          "type": "address"
        },
        {
          "indexed": false,
          "name": "newOwner",
          "type": "address"
        }
      ],
      "name": "DeviceTransfered",
      "type": "event",
      "signature": "0x848155b8e733cfd6e7258639111d906437ddb051818f4061fc4c7cfbc575cb2e"
    },
    {
      "anonymous": false,
      "inputs": [
        {
          "indexed": true,
          "name": "deviceId",
          "type": "uint256"
        },
        {
          "indexed": true,
          "name": "property",
          "type": "bytes32"
        },
        {
          "indexed": false,
          "name": "newValue",
          "type": "bytes32"
        }
      ],
      "name": "DevicePropertyUpdated",
      "type": "event",
      "signature": "0x67ace838aca3988a026b61036d72b93a8316d05feecb6ee10316e8d59f0e687f"
    },
    {
      "anonymous": false,
      "inputs": [
        {
          "indexed": true,
          "name": "signatureId",
          "type": "uint256"
        },
        {
          "indexed": true,
          "name": "deviceId",
          "type": "uint256"
        },
        {
          "indexed": true,
          "name": "signer",
          "type": "address"
        },
        {
          "indexed": false,
          "name": "expiryTime",
          "type": "uint256"
        }
      ],
      "name": "DeviceSigned",
      "type": "event",
      "signature": "0x3739f348a11e3a029a385b4746ea6edba7f01ceec207010638e9d17862b78c40"
    },
    {
      "anonymous": false,
      "inputs": [
        {
          "indexed": true,
          "name": "signatureId",
          "type": "uint256"
        },
        {
          "indexed": true,
          "name": "deviceId",
          "type": "uint256"
        }
      ],
      "name": "SignatureRevoked",
      "type": "event",
      "signature": "0xf93d5095ac7696e643e1fa0aa35d622f4a13e11f4e199f30794679dcdcdb9737"
    },
    {
      "anonymous": false,
      "inputs": [
        {
          "indexed": true,
          "name": "deviceId",
          "type": "uint256"
        },
        {
          "indexed": true,
          "name": "owner",
          "type": "address"
        },
        {
          "indexed": false,
          "name": "identifier",
          "type": "bytes32"
        },
        {
          "indexed": false,
          "name": "metadataHash",
          "type": "bytes32"
        },
        {
          "indexed": false,
          "name": "firmwareHash",
          "type": "bytes32"
        }
      ],
      "name": "DeviceCreated",
      "type": "event",
      "signature": "0x093aad13dfa930f4f2311a7f59be1c3674ccc072b729756c22447948a2c05200"
    },
    {
      "anonymous": false,
      "inputs": [
        {
          "indexed": true,
          "name": "owner",
          "type": "address"
        },
        {
          "indexed": false,
          "name": "newData",
          "type": "string"
        }
      ],
      "name": "EntityDataUpdated",
      "type": "event",
      "signature": "0x53d207b6cf416d44764c48a52a7e64ffa2793f67215d452a032a11e0dd34bd2c"
    }
  ],
  "bytecode": "0x608060405234801561001057600080fd5b50612273806100206000396000f3fe608060405260043610610107576000357c0100000000000000000000000000000000000000000000000000000000900463ffffffff16806307f637001461010c5780630bcb88e81461015157806310ff8e31146101a45780632a08e601146102345780633da1f79a146102995780634840c63b146102d457806351b0e98714610337578063533293ab146103dd5780635a3f79d2146104225780636231fb0b146104ea5780638be101941461052f5780638e9075be146105c35780639de9662d146106b7578063aa554c9d14610747578063acbcb507146107a0578063b0bd9fda1461086a578063b22d439d146108b9578063c40613df14610916578063ee23578314610a07575b600080fd5b34801561011857600080fd5b5061014f6004803603604081101561012f57600080fd5b810190808035906020019092919080359060200190929190505050610a62565b005b34801561015d57600080fd5b5061018a6004803603602081101561017457600080fd5b8101908080359060200190929190505050610c56565b604051808215151515815260200191505060405180910390f35b3480156101b057600080fd5b506101dd600480360360208110156101c757600080fd5b8101908080359060200190929190505050610cf2565b604051808573ffffffffffffffffffffffffffffffffffffffff1673ffffffffffffffffffffffffffffffffffffffff16815260200184815260200183815260200182815260200194505050505060405180910390f35b34801561024057600080fd5b506102836004803603602081101561025757600080fd5b81019080803573ffffffffffffffffffffffffffffffffffffffff169060200190929190505050610d51565b6040518082815260200191505060405180910390f35b3480156102a557600080fd5b506102d2600480360360208110156102bc57600080fd5b8101908080359060200190929190505050610d69565b005b3480156102e057600080fd5b50610321600480360360608110156102f757600080fd5b81019080803590602001909291908035906020019092919080359060200190929190505050610fdd565b6040518082815260200191505060405180910390f35b34801561034357600080fd5b506103866004803603602081101561035a57600080fd5b81019080803573ffffffffffffffffffffffffffffffffffffffff169060200190929190505050611176565b6040518080602001828103825283818151815260200191508051906020019060200280838360005b838110156103c95780820151818401526020810190506103ae565b505050509050019250505060405180910390f35b3480156103e957600080fd5b506104206004803603604081101561040057600080fd5b8101908080359060200190929190803590602001909291905050506112b4565b005b34801561042e57600080fd5b506104e86004803603602081101561044557600080fd5b810190808035906020019064010000000081111561046257600080fd5b82018360208201111561047457600080fd5b8035906020019184600183028401116401000000008311171561049657600080fd5b91908080601f016020809104026020016040519081016040528093929190818152602001838380828437600081840152601f19601f8201169050808301925050505050505091929192905050506114a8565b005b3480156104f657600080fd5b5061052d6004803603604081101561050d57600080fd5b8101908080359060200190929190803590602001909291905050506115b4565b005b34801561053b57600080fd5b506105686004803603602081101561055257600080fd5b81019080803590602001909291905050506117a8565b604051808573ffffffffffffffffffffffffffffffffffffffff1673ffffffffffffffffffffffffffffffffffffffff1681526020018481526020018381526020018215151515815260200194505050505060405180910390f35b3480156105cf57600080fd5b5061069d600480360360608110156105e657600080fd5b8101908080359060200190929190803590602001909291908035906020019064010000000081111561061757600080fd5b82018360208201111561062957600080fd5b8035906020019184600183028401116401000000008311171561064b57600080fd5b91908080601f016020809104026020016040519081016040528093929190818152602001838380828437600081840152601f19601f820116905080830192505050505050509192919290505050611814565b604051808215151515815260200191505060405180910390f35b3480156106c357600080fd5b506106f0600480360360208110156106da57600080fd5b810190808035906020019092919050505061187b565b6040518080602001828103825283818151815260200191508051906020019060200280838360005b83811015610733578082015181840152602081019050610718565b505050509050019250505060405180910390f35b34801561075357600080fd5b5061078a6004803603604081101561076a57600080fd5b81019080803590602001909291908035906020019092919050505061197e565b6040518082815260200191505060405180910390f35b3480156107ac57600080fd5b506107ef600480360360208110156107c357600080fd5b81019080803573ffffffffffffffffffffffffffffffffffffffff169060200190929190505050611af5565b6040518080602001828103825283818151815260200191508051906020019080838360005b8381101561082f578082015181840152602081019050610814565b50505050905090810190601f16801561085c5780820380516001836020036101000a031916815260200191505b509250505060405180910390f35b34801561087657600080fd5b506108a36004803603602081101561088d57600080fd5b8101908080359060200190929190505050611bab565b6040518082815260200191505060405180910390f35b3480156108c557600080fd5b506108fc600480360360408110156108dc57600080fd5b810190808035906020019092919080359060200190929190505050611bc3565b604051808215151515815260200191505060405180910390f35b34801561092257600080fd5b506109ed6004803603606081101561093957600080fd5b81019080803590602001909291908035906020019064010000000081111561096057600080fd5b82018360208201111561097257600080fd5b8035906020019184602083028401116401000000008311171561099457600080fd5b919080806020026020016040519081016040528093929190818152602001838360200280828437600081840152601f19601f82011690508083019250505050505050919291929080359060200190929190505050611bf0565b604051808215151515815260200191505060405180910390f35b348015610a1357600080fd5b50610a6060048036036040811015610a2a57600080fd5b8101908080359060200190929190803573ffffffffffffffffffffffffffffffffffffffff169060200190929190505050611c26565b005b813373ffffffffffffffffffffffffffffffffffffffff16600182815481101515610a8957fe5b906000526020600020906004020160000160009054906101000a900473ffffffffffffffffffffffffffffffffffffffff1673ffffffffffffffffffffffffffffffffffffffff16141515610b46576040517f08c379a00000000000000000000000000000000000000000000000000000000081526004018080602001828103825260158152602001807f4f6e6c7920666f7220646576696365206f776e6572000000000000000000000081525060200191505060405180910390fd5b8260006004600083815260200190815260200160002054141515610bd2576040517f08c379a00000000000000000000000000000000000000000000000000000000081526004018080602001828103825260128152602001807f4d757374206e6f74206265207369676e6564000000000000000000000000000081525060200191505060405180910390fd5b82600185815481101515610be257fe5b9060005260206000209060040201600201819055507f6d65746164617461000000000000000000000000000000000000000000000000847f67ace838aca3988a026b61036d72b93a8316d05feecb6ee10316e8d59f0e687f856040518082815260200191505060405180910390a350505050565b6000600182815481101515610c6757fe5b9060005260206000209060040201600101546001900473ffffffffffffffffffffffffffffffffffffffff16600183815481101515610ca257fe5b906000526020600020906004020160000160009054906101000a900473ffffffffffffffffffffffffffffffffffffffff1673ffffffffffffffffffffffffffffffffffffffff16149050919050565b600181815481101515610d0157fe5b90600052602060002090600402016000915090508060000160009054906101000a900473ffffffffffffffffffffffffffffffffffffffff16908060010154908060020154908060030154905084565b60026020528060005260406000206000915090505481565b3373ffffffffffffffffffffffffffffffffffffffff16600382815481101515610d8f57fe5b906000526020600020906004020160000160009054906101000a900473ffffffffffffffffffffffffffffffffffffffff1673ffffffffffffffffffffffffffffffffffffffff16141515610e72576040517f08c379a00000000000000000000000000000000000000000000000000000000081526004018080602001828103825260218152602001807f4f6e6c7920666f722063726561746f72206f6620746865207369676e6174757281526020017f650000000000000000000000000000000000000000000000000000000000000081525060400191505060405180910390fd5b60001515600382815481101515610e8557fe5b906000526020600020906004020160030160009054906101000a900460ff161515141515610f41576040517f08c379a00000000000000000000000000000000000000000000000000000000081526004018080602001828103825260248152602001807f5369676e6174757265206d7573746e2774206265207265766f6b656420616c7281526020017f656164790000000000000000000000000000000000000000000000000000000081525060400191505060405180910390fd5b6000600382815481101515610f5257fe5b9060005260206000209060040201905060018160030160006101000a81548160ff021916908315150217905550600460008260010154815260200190815260200160002060008154809291906001900391905055508060010154827ff93d5095ac7696e643e1fa0aa35d622f4a13e11f4e199f30794679dcdcdb973760405160405180910390a35050565b6000610fe7612119565b6080604051908101604052803373ffffffffffffffffffffffffffffffffffffffff1681526020018681526020018581526020018481525090506000600180839080600181540180825580915050906001820390600052602060002090600402016000909192909190915060008201518160000160006101000a81548173ffffffffffffffffffffffffffffffffffffffff021916908373ffffffffffffffffffffffffffffffffffffffff1602179055506020820151816001015560408201518160020155606082015181600301555050039050600260003373ffffffffffffffffffffffffffffffffffffffff1673ffffffffffffffffffffffffffffffffffffffff168152602001908152602001600020600081548092919060010191905055503373ffffffffffffffffffffffffffffffffffffffff16817f093aad13dfa930f4f2311a7f59be1c3674ccc072b729756c22447948a2c0520088888860405180848152602001838152602001828152602001935050505060405180910390a380925050509392505050565b606080600260008473ffffffffffffffffffffffffffffffffffffffff1673ffffffffffffffffffffffffffffffffffffffff168152602001908152602001600020546040519080825280602002602001820160405280156111e75781602001602082028038833980820191505090505b509050600080905060008090505b6001805490508110156112a9578473ffffffffffffffffffffffffffffffffffffffff1660018281548110151561122857fe5b906000526020600020906004020160000160009054906101000a900473ffffffffffffffffffffffffffffffffffffffff1673ffffffffffffffffffffffffffffffffffffffff16141561129c5780838381518110151561128557fe5b906020019060200201818152505081806001019250505b80806001019150506111f5565b508192505050919050565b813373ffffffffffffffffffffffffffffffffffffffff166001828154811015156112db57fe5b906000526020600020906004020160000160009054906101000a900473ffffffffffffffffffffffffffffffffffffffff1673ffffffffffffffffffffffffffffffffffffffff16141515611398576040517f08c379a00000000000000000000000000000000000000000000000000000000081526004018080602001828103825260158152602001807f4f6e6c7920666f7220646576696365206f776e6572000000000000000000000081525060200191505060405180910390fd5b8260006004600083815260200190815260200160002054141515611424576040517f08c379a00000000000000000000000000000000000000000000000000000000081526004018080602001828103825260128152602001807f4d757374206e6f74206265207369676e6564000000000000000000000000000081525060200191505060405180910390fd5b8260018581548110151561143457fe5b9060005260206000209060040201600101819055507f6964656e74696669657200000000000000000000000000000000000000000000847f67ace838aca3988a026b61036d72b93a8316d05feecb6ee10316e8d59f0e687f856040518082815260200191505060405180910390a350505050565b806000803373ffffffffffffffffffffffffffffffffffffffff1673ffffffffffffffffffffffffffffffffffffffff16815260200190815260200160002060000190805190602001906114fd929190612161565b503373ffffffffffffffffffffffffffffffffffffffff167f53d207b6cf416d44764c48a52a7e64ffa2793f67215d452a032a11e0dd34bd2c826040518080602001828103825283818151815260200191508051906020019080838360005b8381101561157757808201518184015260208101905061155c565b50505050905090810190601f1680156115a45780820380516001836020036101000a031916815260200191505b509250505060405180910390a250565b813373ffffffffffffffffffffffffffffffffffffffff166001828154811015156115db57fe5b906000526020600020906004020160000160009054906101000a900473ffffffffffffffffffffffffffffffffffffffff1673ffffffffffffffffffffffffffffffffffffffff16141515611698576040517f08c379a00000000000000000000000000000000000000000000000000000000081526004018080602001828103825260158152602001807f4f6e6c7920666f7220646576696365206f776e6572000000000000000000000081525060200191505060405180910390fd5b8260006004600083815260200190815260200160002054141515611724576040517f08c379a00000000000000000000000000000000000000000000000000000000081526004018080602001828103825260128152602001807f4d757374206e6f74206265207369676e6564000000000000000000000000000081525060200191505060405180910390fd5b8260018581548110151561173457fe5b9060005260206000209060040201600301819055507f6669726d77617265000000000000000000000000000000000000000000000000847f67ace838aca3988a026b61036d72b93a8316d05feecb6ee10316e8d59f0e687f856040518082815260200191505060405180910390a350505050565b6003818154811015156117b757fe5b90600052602060002090600402016000915090508060000160009054906101000a900473ffffffffffffffffffffffffffffffffffffffff16908060010154908060020154908060030160009054906101000a900460ff16905084565b600060018481548110151561182557fe5b9060005260206000209060040201600101546001900473ffffffffffffffffffffffffffffffffffffffff1661185b8484611f78565b73ffffffffffffffffffffffffffffffffffffffff161490509392505050565b60608060046000848152602001908152602001600020546040519080825280602002602001820160405280156118c05781602001602082028038833980820191505090505b509050600080905060008090505b60038054905081101561197357846003828154811015156118eb57fe5b90600052602060002090600402016001015414801561193b57506000151560038281548110151561191857fe5b906000526020600020906004020160030160009054906101000a900460ff161515145b156119665780838381518110151561194f57fe5b906020019060200201818152505081806001019250505b80806001019150506118ce565b508192505050919050565b60006119886121e1565b6080604051908101604052803373ffffffffffffffffffffffffffffffffffffffff168152602001858152602001848152602001600015158152509050600060016003839080600181540180825580915050906001820390600052602060002090600402016000909192909190915060008201518160000160006101000a81548173ffffffffffffffffffffffffffffffffffffffff021916908373ffffffffffffffffffffffffffffffffffffffff160217905550602082015181600101556040820151816002015560608201518160030160006101000a81548160ff021916908315150217905550505003905060046000868152602001908152602001600020600081548092919060010191905055503373ffffffffffffffffffffffffffffffffffffffff1685827f3739f348a11e3a029a385b4746ea6edba7f01ceec207010638e9d17862b78c40876040518082815260200191505060405180910390a4809250505092915050565b6000602052806000526040600020600091509050806000018054600181600116156101000203166002900480601f016020809104026020016040519081016040528092919081815260200182805460018160011615610100020316600290048015611ba15780601f10611b7657610100808354040283529160200191611ba1565b820191906000526020600020905b815481529060010190602001808311611b8457829003601f168201915b5050505050905081565b60046020528060005260406000206000915090505481565b600081600184815481101515611bd557fe5b90600052602060002090600402016003015414905092915050565b6000611c1d83600186815481101515611c0557fe5b9060005260206000209060040201600201548461205c565b90509392505050565b813373ffffffffffffffffffffffffffffffffffffffff16600182815481101515611c4d57fe5b906000526020600020906004020160000160009054906101000a900473ffffffffffffffffffffffffffffffffffffffff1673ffffffffffffffffffffffffffffffffffffffff16141515611d0a576040517f08c379a00000000000000000000000000000000000000000000000000000000081526004018080602001828103825260158152602001807f4f6e6c7920666f7220646576696365206f776e6572000000000000000000000081525060200191505060405180910390fd5b8260006004600083815260200190815260200160002054141515611d96576040517f08c379a00000000000000000000000000000000000000000000000000000000081526004018080602001828103825260128152602001807f4d757374206e6f74206265207369676e6564000000000000000000000000000081525060200191505060405180910390fd5b6000600185815481101515611da757fe5b906000526020600020906004020160000160009054906101000a900473ffffffffffffffffffffffffffffffffffffffff16905083600186815481101515611deb57fe5b906000526020600020906004020160000160006101000a81548173ffffffffffffffffffffffffffffffffffffffff021916908373ffffffffffffffffffffffffffffffffffffffff160217905550600260003373ffffffffffffffffffffffffffffffffffffffff1673ffffffffffffffffffffffffffffffffffffffff1681526020019081526020016000206000815480929190600190039190505550600260008573ffffffffffffffffffffffffffffffffffffffff1673ffffffffffffffffffffffffffffffffffffffff16815260200190815260200160002060008154809291906001019190505550847f848155b8e733cfd6e7258639111d906437ddb051818f4061fc4c7cfbc575cb2e8286604051808373ffffffffffffffffffffffffffffffffffffffff1673ffffffffffffffffffffffffffffffffffffffff1681526020018273ffffffffffffffffffffffffffffffffffffffff1673ffffffffffffffffffffffffffffffffffffffff1681526020019250505060405180910390a25050505050565b60008060008060418551141515611f955760009350505050612056565b6020850151925060408501519150606085015160001a9050601b8160ff161015611fc057601b810190505b601b8160ff1614158015611fd85750601c8160ff1614155b15611fe95760009350505050612056565b60018682858560405160008152602001604052604051808581526020018460ff1660ff1681526020018381526020018281526020019450505050506020604051602081039080840390855afa158015612046573d6000803e3d6000fd5b5050506020604051035193505050505b92915050565b60008082905060008090505b855181101561210b576000868281518110151561208157fe5b906020019060200201519050808310156120cb57828160405160200180838152602001828152602001925050506040516020818303038152906040528051906020012092506120fd565b808360405160200180838152602001828152602001925050506040516020818303038152906040528051906020012092505b508080600101915050612068565b508381149150509392505050565b608060405190810160405280600073ffffffffffffffffffffffffffffffffffffffff1681526020016000801916815260200160008019168152602001600080191681525090565b828054600181600116156101000203166002900490600052602060002090601f016020900481019282601f106121a257805160ff19168380011785556121d0565b828001600101855582156121d0579182015b828111156121cf5782518255916020019190600101906121b4565b5b5090506121dd9190612222565b5090565b608060405190810160405280600073ffffffffffffffffffffffffffffffffffffffff16815260200160008152602001600081526020016000151581525090565b61224491905b80821115612240576000816000905550600101612228565b5090565b9056fea165627a7a7230582053eb1b7f2af6d9cc483776cb4859c85a93c54842c295d340313e17b0d4b72a2c0029",
  "source": "pragma solidity ^0.5.0;\n\nimport \"./MerkleProof.sol\";\nimport \"./ECRecovery.sol\";\n\n/**\n * @title Provides base functionalities for entities.\n */\ncontract EntityBase {\n    /// @dev Entity in the device management system.\n    struct Entity {\n        // Arbitary data in case entity wants to have some public information available.\n        string data;\n    }\n\n    /// @notice Maps owner to an Entity structure.\n    mapping (address => Entity) public ownerToEntity;\n\n    /// @dev Fired on entity data update.\n    event EntityDataUpdated(address indexed owner, string newData);\n\n    /**\n     * @notice Update entity data.\n     * @param _data Entity data.\n     */\n    function updateEntityData(string memory _data) public {\n        ownerToEntity[msg.sender].data = _data;\n\n        emit EntityDataUpdated(msg.sender, _data);\n    }\n}\n\n/**\n * @title Provides base functionalities for devices.\n */\ncontract DeviceBase {\n    /// @dev Main device structucture.\n    struct Device {\n        // Ethereum address of a device owner.\n        address owner;\n\n        // Unique device identifier. Can hold anything that fits into 32 bytes. Different from device ID.\n        // Supposed to be a public key or a representation of one, such as fingerprint of RSA/ECC \n        // public key or simply an Ethereum address. To make identifier be an Ethereum address, \n        // use secp256k1 curve to generate public and private key pair, run keccak256 hash function\n        // on public key and take last 20 bytes of generated hash to get Ethereum address.\n        // If a device wants to be it's own entity, use same address as in owner property.\n        bytes32 identifier;\n        \n        // Merkle root hash of metadata or simple hash of concatenated data.\n        // It is recommended to use Merkle tree to store information on device as it enables to \n        // prove membership of specific data by providing Merkle proof without revealing whole dataset.\n        bytes32 metadataHash;\n\n        // Holds a hash of actual firmware hash. Actual firmware hash is not supposed to be stored.\n        // Plain text or hash would expose data that is meant to be private, so \"hash of hash\" principle \n        // gives privacy and makes integrity verification possible.\n        bytes32 firmwareHash;\n\n        // Additional data linked to device. Can be used to store hash of encrypted firmware on IPFS.\n        //string offchainLink;\n\n        // Full public key (even though parties can exchange public key other ways then use\n        // blockchain to verify.)\n        //string publicKey;\n    }\n    \n    /// @notice State variable for storing devices. Index in the array is also a device ID.\n    /// Array can hold a maximum of 2^256-1 entries.\n    Device[] public devices;\n\n    /// @notice Keeps track of total devices for each owner.\n    mapping (address => uint) public ownerDeviceCount;\n\n    /// @dev Fired on creation of new device.\n    event DeviceCreated(uint indexed deviceId, address indexed owner, bytes32 identifier, bytes32 metadataHash, bytes32 firmwareHash);\n\n    /// @dev Modifier for ensuring that the message sender is owner of provided device ID.\n    modifier onlyOwnerOf(uint _deviceId) {\n        require(devices[_deviceId].owner == msg.sender, \"Only for device owner\");\n        _;\n    }\n\n    /**\n     * @notice Creates and saves device into storage. Emits DeviceCreated. \n     * @param _identifier Unique device identifier, such as fingerprint of RSA/ECC public key or Ethereum address (recommended).\n     * @param _metadataHash Merkle root hash of metadata (recommended) or simple hash of concatenated metadata.\n     * @param _firmwareHash Hash of actual firmware hash.\n     * @return Created device ID.\n     */\n    function createDevice(bytes32 _identifier, bytes32 _metadataHash, bytes32 _firmwareHash) public returns (uint) {\n        Device memory newDevice = Device(msg.sender, _identifier, _metadataHash, _firmwareHash);\n        uint deviceId = devices.push(newDevice) - 1;\n        ownerDeviceCount[msg.sender]++;\n\n        emit DeviceCreated(deviceId, msg.sender, _identifier, _metadataHash, _firmwareHash);\n        return deviceId;\n    }\n}\n\n/**\n * @title Provides extra functionalities for devices.\n */\ncontract DeviceHelper is DeviceBase {\n   /**\n     * @notice Gets all devices owned by specified address. \n     * @dev Use this function instead of filtering DeviceCreated event since devices could have been transferred between owners.\n     * @param _owner Owner address.\n     * @return Array of device IDs.\n     */\n    function getDevicesByOwner(address _owner) public view returns (uint[] memory) {\n        uint[] memory deviceIds = new uint[](ownerDeviceCount[_owner]);\n        uint counter = 0;\n        for (uint i = 0; i < devices.length; i++) {\n            if (devices[i].owner == _owner) {\n                deviceIds[counter] = i;\n                counter++;\n            }\n        }\n        return deviceIds;\n    }\n\n    /**\n     * @notice Checks if device is also an entity. \n     * @param _deviceId ID of a  device.\n     * @return Boolean status.\n     */\n    function isDeviceAnEntity(uint _deviceId) public view returns (bool) {\n        return devices[_deviceId].owner == address(uint160(uint256(devices[_deviceId].identifier)));\n    }\n\n    /**\n     * @notice Checks if provided leaf is a member of metadata contained in Merkle tree. \n     * Assumes that each pair of leaves and each pair of pre-images are sorted.\n     * @param _deviceId ID of a device containing metadata hash.\n     * @param _proof Merkle proof containing sibling hashes on the branch from the leaf to the root of the Merkle tree.\n     * @param _leaf Leaf of Merkle tree.\n     * @return Boolean status.\n     */\n    function isValidMetadataMember(uint _deviceId, bytes32[] memory _proof, bytes32 _leaf) public view returns (bool) {\n        return MerkleProof.verifyProof(_proof, devices[_deviceId].metadataHash, _leaf);\n    }\n\n    /**\n     * @notice Checks if provided firmware hash is equal to firmware hash device property. \n     * @param _deviceId ID of a device containing firmware hash.\n     * @param _firmwareHash Firmware hash (not the actual hash).\n     * @return Boolean status.\n     */\n    function isValidFirmwareHash(uint _deviceId, bytes32 _firmwareHash) public view returns (bool) {\n        return devices[_deviceId].firmwareHash == _firmwareHash;\n    }\n\n    /**\n     * @notice Validate authenticity of message signed by Etherium private key.\n     * On-chain validation is available only for Ethereum signed messages.\n     * @param _deviceId ID of a device that signed the message.\n     * @param _messageHash Hash of sent message.\n     * @param _signature Signature generated using web3.eth.sign().\n     * @return Boolean status.\n     */\n    function isValidEthMessage(uint _deviceId, bytes32 _messageHash, bytes memory _signature) public view returns (bool) {\n        return ECRecovery.recover(_messageHash, _signature) == address(uint160(uint256(devices[_deviceId].identifier)));\n    }\n}\n\n/**\n * @title Provides base functionalities for signatures.\n */\ncontract SignatureBase {\n    /// @dev Main signature structucture.\n    struct Signature {\n        // Ethereum address of the signer.\n        address signer;\n\n        // ID of device to sign.\n        uint deviceId;\n\n        // Using 256 bits ensures no overflow on year 2038 (Unix seconds).\n        uint expiryTime;\n\n        // Updates to true once signer decides to revoke signature.\n        bool revoked;\n    }\n\n    /// @notice State variable for storing signatures. Index in the array is also a signature ID.\n    /// Array can hold a maximum of 2^256-1 entries.\n    Signature[] public signatures;\n\n    /// @notice Keeps track of total signatures for each device.\n    mapping (uint => uint) public deviceSignatureCount;\n    \n    /// @dev Fired when an address signs a device.\n    event DeviceSigned(uint indexed signatureId, uint indexed deviceId, address indexed signer, uint expiryTime);\n\n    /// @dev Fired when signature is revoked.\n    event SignatureRevoked(uint indexed signatureId, uint indexed deviceId);\n\n    /// @dev Modifier for ensuring that the device hasn't been signed already.\n    modifier notSigned(uint _deviceId) {\n        require(deviceSignatureCount[_deviceId] == 0, \"Must not be signed\");\n        _;\n    }\n\n    /**\n     * @notice Signs a device and signature into storage. Emits DeviceSigned. \n     * @param _deviceId ID of to be signed device.\n     * @param _expiryTime Expiry time in Unix seconds.\n     * @return Created signature ID.\n     */\n    function signDevice(uint _deviceId, uint _expiryTime) public returns (uint) {\n        Signature memory signature = Signature(msg.sender, _deviceId, _expiryTime, false);\n        uint signatureId = signatures.push(signature) - 1;\n        deviceSignatureCount[_deviceId]++;\n\n        emit DeviceSigned(signatureId, _deviceId, msg.sender, _expiryTime);\n        return signatureId;\n    }\n\n    /**\n     * @notice Revokes a signature. Emits SignatureRevoked. \n     * @param _signatureId ID of to be revoked signature.\n     */\n    function revokeSignature(uint _signatureId) public {\n        require(signatures[_signatureId].signer == msg.sender, \"Only for creator of the signature\");\n        require(signatures[_signatureId].revoked == false, \"Signature mustn't be revoked already\");\n        Signature storage signature = signatures[_signatureId];\n        signature.revoked = true;\n        deviceSignatureCount[signature.deviceId]--;\n\n        emit SignatureRevoked(_signatureId, signature.deviceId);\n    }\n}\n\n/**\n * @title Provides extra functionalities for signatures.\n */\ncontract SignatureHelper is SignatureBase {\n    /**\n     * @notice Gets all signatures for specific device. \n     * @dev Use this function instead of filtering DeviceSigned event since signatures could have been revoked.\n     * @param _deviceId ID of a device.\n     * @return Array of signature IDs.\n     */\n    function getActiveSignaturesForDevice(uint _deviceId) public view returns (uint[] memory) {\n        uint[] memory signatureIds = new uint[](deviceSignatureCount[_deviceId]);\n        uint counter = 0;\n        for (uint i = 0; i < signatures.length; i++) {\n            if (signatures[i].deviceId == _deviceId && signatures[i].revoked == false) {\n                signatureIds[counter] = i;\n                counter++;\n            }\n        }\n        return signatureIds;\n    }\n}\n\n/**\n * @title Enriches devices giving them option to be updated only if not signed already.\n */\ncontract DeviceUpdatable is DeviceHelper, SignatureHelper {\n    /// @dev Fired on device ownership transfer, keeps track of historical device owners.\n    event DeviceTransfered(uint indexed deviceId, address oldOwner, address newOwner);\n    \n    /// @dev Fired on device property update, keeps track of historical property values.\n    event DevicePropertyUpdated(uint indexed deviceId, bytes32 indexed property, bytes32 newValue);\n\n    /**\n     * @notice Transfer device ownership from one external account to another. Emits DeviceTransfered.\n     * @param _deviceId ID of to be transfered device.\n     * @param _to Address of new owner.\n     */\n    function transferDevice(uint _deviceId, address _to) public onlyOwnerOf(_deviceId) notSigned(_deviceId) {\n        address currentOwner = devices[_deviceId].owner;\n        devices[_deviceId].owner = _to;\n        ownerDeviceCount[msg.sender]--;\n        ownerDeviceCount[_to]++;\n\n        emit DeviceTransfered(_deviceId, currentOwner, _to);\n    } \n\n    /**\n     * @notice Update device with new identifier. Emits DevicePropertyUpdated.\n     * @param _deviceId ID of a device.\n     * @param _newIdentifier New identifier.\n     */\n    function updateIdentifier(uint _deviceId, bytes32 _newIdentifier) public onlyOwnerOf(_deviceId) notSigned(_deviceId) {\n        devices[_deviceId].identifier = _newIdentifier;\n\n        emit DevicePropertyUpdated(_deviceId, \"identifier\", _newIdentifier);\n    }\n\n    /**\n     * @notice Update device with new metadata hash. Emits DevicePropertyUpdated.\n     * @param _deviceId ID of a device.\n     * @param _newMetadataHash New metadata hash.\n     */\n    function updateMetadataHash(uint _deviceId, bytes32 _newMetadataHash) public onlyOwnerOf(_deviceId) notSigned(_deviceId) {\n        devices[_deviceId].metadataHash = _newMetadataHash;\n\n        emit DevicePropertyUpdated(_deviceId, \"metadata\", _newMetadataHash);\n    }\n\n    /**\n     * @notice Update device with new firmware hash. Emits DevicePropertyUpdated.\n     * @param _deviceId ID of a device.\n     * @param _newFirmwareHash New firmware hash.\n     */\n    function updateFirmwareHash(uint _deviceId, bytes32 _newFirmwareHash) public onlyOwnerOf(_deviceId) notSigned(_deviceId) {\n        devices[_deviceId].firmwareHash = _newFirmwareHash;\n\n        emit DevicePropertyUpdated(_deviceId, \"firmware\", _newFirmwareHash);\n    }\n}\n\n/// @title Device manager core contract.\ncontract DeviceManager is EntityBase, DeviceUpdatable {\n    /// @dev Merges contracts.\n}\n",
  "sourcePath": "/home/silvio/Projects/iot-device-management/contracts/DeviceManager.sol",
  "compiler": {
    "name": "solc",
    "version": "0.5.0+commit.1d4f565a.Emscripten.clang"
  },
  "schemaVersion": "3.0.5",
  "updatedAt": "2019-05-02T10:30:31.771Z",
  "devdoc": {
    "methods": {
      "createDevice(bytes32,bytes32,bytes32)": {
        "params": {
          "_firmwareHash": "Hash of actual firmware hash.",
          "_identifier": "Unique device identifier, such as fingerprint of RSA/ECC public key or Ethereum address (recommended).",
          "_metadataHash": "Merkle root hash of metadata (recommended) or simple hash of concatenated metadata."
        },
        "return": "Created device ID."
      },
      "getActiveSignaturesForDevice(uint256)": {
        "details": "Use this function instead of filtering DeviceSigned event since signatures could have been revoked.",
        "params": {
          "_deviceId": "ID of a device."
        },
        "return": "Array of signature IDs."
      },
      "getDevicesByOwner(address)": {
        "details": "Use this function instead of filtering DeviceCreated event since devices could have been transferred between owners.",
        "params": {
          "_owner": "Owner address."
        },
        "return": "Array of device IDs."
      },
      "isDeviceAnEntity(uint256)": {
        "params": {
          "_deviceId": "ID of a  device."
        },
        "return": "Boolean status."
      },
      "isValidEthMessage(uint256,bytes32,bytes)": {
        "params": {
          "_deviceId": "ID of a device that signed the message.",
          "_messageHash": "Hash of sent message.",
          "_signature": "Signature generated using web3.eth.sign()."
        },
        "return": "Boolean status."
      },
      "isValidFirmwareHash(uint256,bytes32)": {
        "params": {
          "_deviceId": "ID of a device containing firmware hash.",
          "_firmwareHash": "Firmware hash (not the actual hash)."
        },
        "return": "Boolean status."
      },
      "isValidMetadataMember(uint256,bytes32[],bytes32)": {
        "params": {
          "_deviceId": "ID of a device containing metadata hash.",
          "_leaf": "Leaf of Merkle tree.",
          "_proof": "Merkle proof containing sibling hashes on the branch from the leaf to the root of the Merkle tree."
        },
        "return": "Boolean status."
      },
      "revokeSignature(uint256)": {
        "params": {
          "_signatureId": "ID of to be revoked signature."
        }
      },
      "signDevice(uint256,uint256)": {
        "params": {
          "_deviceId": "ID of to be signed device.",
          "_expiryTime": "Expiry time in Unix seconds."
        },
        "return": "Created signature ID."
      },
      "transferDevice(uint256,address)": {
        "params": {
          "_deviceId": "ID of to be transfered device.",
          "_to": "Address of new owner."
        }
      },
      "updateEntityData(string)": {
        "params": {
          "_data": "Entity data."
        }
      },
      "updateFirmwareHash(uint256,bytes32)": {
        "params": {
          "_deviceId": "ID of a device.",
          "_newFirmwareHash": "New firmware hash."
        }
      },
      "updateIdentifier(uint256,bytes32)": {
        "params": {
          "_deviceId": "ID of a device.",
          "_newIdentifier": "New identifier."
        }
      },
      "updateMetadataHash(uint256,bytes32)": {
        "params": {
          "_deviceId": "ID of a device.",
          "_newMetadataHash": "New metadata hash."
        }
      }
    },
    "title": "Device manager core contract."
  },
  "userdoc": {
    "methods": {
      "createDevice(bytes32,bytes32,bytes32)": {
        "notice": "Creates and saves device into storage. Emits DeviceCreated. "
      },
      "getActiveSignaturesForDevice(uint256)": {
        "notice": "Gets all signatures for specific device. "
      },
      "getDevicesByOwner(address)": {
        "notice": "Gets all devices owned by specified address. "
      },
      "isDeviceAnEntity(uint256)": {
        "notice": "Checks if device is also an entity. "
      },
      "isValidEthMessage(uint256,bytes32,bytes)": {
        "notice": "Validate authenticity of message signed by Etherium private key. On-chain validation is available only for Ethereum signed messages."
      },
      "isValidFirmwareHash(uint256,bytes32)": {
        "notice": "Checks if provided firmware hash is equal to firmware hash device property. "
      },
      "isValidMetadataMember(uint256,bytes32[],bytes32)": {
        "notice": "Checks if provided leaf is a member of metadata contained in Merkle tree.  Assumes that each pair of leaves and each pair of pre-images are sorted."
      },
      "revokeSignature(uint256)": {
        "notice": "Revokes a signature. Emits SignatureRevoked. "
      },
      "signDevice(uint256,uint256)": {
        "notice": "Signs a device and signature into storage. Emits DeviceSigned. "
      },
      "transferDevice(uint256,address)": {
        "notice": "Transfer device ownership from one external account to another. Emits DeviceTransfered."
      },
      "updateEntityData(string)": {
        "notice": "Update entity data."
      },
      "updateFirmwareHash(uint256,bytes32)": {
        "notice": "Update device with new firmware hash. Emits DevicePropertyUpdated."
      },
      "updateIdentifier(uint256,bytes32)": {
        "notice": "Update device with new identifier. Emits DevicePropertyUpdated."
      },
      "updateMetadataHash(uint256,bytes32)": {
        "notice": "Update device with new metadata hash. Emits DevicePropertyUpdated."
      }
    }
  }
}