{
  "contractName": "DeviceManager",
  "abi": [
    {
      "constant": false,
      "inputs": [
        {
          "name": "_deviceId",
          "type": "uint256"
        },
        {
          "name": "_newMetadataHash",
          "type": "bytes32"
        }
      ],
      "name": "updateMetadataHash",
      "outputs": [],
      "payable": false,
      "stateMutability": "nonpayable",
      "type": "function"
    },
    {
      "constant": true,
      "inputs": [
        {
          "name": "_deviceId",
          "type": "uint256"
        }
      ],
      "name": "isDeviceAnEntity",
      "outputs": [
        {
          "name": "",
          "type": "bool"
        }
      ],
      "payable": false,
      "stateMutability": "view",
      "type": "function"
    },
    {
      "constant": true,
      "inputs": [
        {
          "name": "",
          "type": "uint256"
        }
      ],
      "name": "devices",
      "outputs": [
        {
          "name": "owner",
          "type": "address"
        },
        {
          "name": "identifier",
          "type": "bytes32"
        },
        {
          "name": "metadataHash",
          "type": "bytes32"
        },
        {
          "name": "firmwareHash",
          "type": "bytes32"
        }
      ],
      "payable": false,
      "stateMutability": "view",
      "type": "function"
    },
    {
      "constant": true,
      "inputs": [
        {
          "name": "",
          "type": "address"
        }
      ],
      "name": "ownerDeviceCount",
      "outputs": [
        {
          "name": "",
          "type": "uint256"
        }
      ],
      "payable": false,
      "stateMutability": "view",
      "type": "function"
    },
    {
      "constant": false,
      "inputs": [
        {
          "name": "_signatureId",
          "type": "uint256"
        }
      ],
      "name": "revokeSignature",
      "outputs": [],
      "payable": false,
      "stateMutability": "nonpayable",
      "type": "function"
    },
    {
      "constant": false,
      "inputs": [
        {
          "name": "_identifier",
          "type": "bytes32"
        },
        {
          "name": "_metadataHash",
          "type": "bytes32"
        },
        {
          "name": "_firmwareHash",
          "type": "bytes32"
        }
      ],
      "name": "createDevice",
      "outputs": [
        {
          "name": "",
          "type": "uint256"
        }
      ],
      "payable": false,
      "stateMutability": "nonpayable",
      "type": "function"
    },
    {
      "constant": true,
      "inputs": [
        {
          "name": "_owner",
          "type": "address"
        }
      ],
      "name": "getDevicesByOwner",
      "outputs": [
        {
          "name": "",
          "type": "uint256[]"
        }
      ],
      "payable": false,
      "stateMutability": "view",
      "type": "function"
    },
    {
      "constant": false,
      "inputs": [
        {
          "name": "_deviceId",
          "type": "uint256"
        },
        {
          "name": "_newIdentifier",
          "type": "bytes32"
        }
      ],
      "name": "updateIdentifier",
      "outputs": [],
      "payable": false,
      "stateMutability": "nonpayable",
      "type": "function"
    },
    {
      "constant": false,
      "inputs": [
        {
          "name": "_data",
          "type": "string"
        }
      ],
      "name": "updateEntityData",
      "outputs": [],
      "payable": false,
      "stateMutability": "nonpayable",
      "type": "function"
    },
    {
      "constant": false,
      "inputs": [
        {
          "name": "_deviceId",
          "type": "uint256"
        },
        {
          "name": "_newFirmwareHash",
          "type": "bytes32"
        }
      ],
      "name": "updateFirmwareHash",
      "outputs": [],
      "payable": false,
      "stateMutability": "nonpayable",
      "type": "function"
    },
    {
      "constant": true,
      "inputs": [
        {
          "name": "",
          "type": "uint256"
        }
      ],
      "name": "signatures",
      "outputs": [
        {
          "name": "signer",
          "type": "address"
        },
        {
          "name": "deviceId",
          "type": "uint256"
        },
        {
          "name": "expiryTime",
          "type": "uint256"
        },
        {
          "name": "revoked",
          "type": "bool"
        }
      ],
      "payable": false,
      "stateMutability": "view",
      "type": "function"
    },
    {
      "constant": true,
      "inputs": [
        {
          "name": "_deviceId",
          "type": "uint256"
        },
        {
          "name": "_messageHash",
          "type": "bytes32"
        },
        {
          "name": "_signature",
          "type": "bytes"
        }
      ],
      "name": "isValidEthMessage",
      "outputs": [
        {
          "name": "",
          "type": "bool"
        }
      ],
      "payable": false,
      "stateMutability": "view",
      "type": "function"
    },
    {
      "constant": true,
      "inputs": [
        {
          "name": "_deviceId",
          "type": "uint256"
        }
      ],
      "name": "getActiveSignaturesForDevice",
      "outputs": [
        {
          "name": "",
          "type": "uint256[]"
        }
      ],
      "payable": false,
      "stateMutability": "view",
      "type": "function"
    },
    {
      "constant": false,
      "inputs": [
        {
          "name": "_deviceId",
          "type": "uint256"
        },
        {
          "name": "_expiryTime",
          "type": "uint256"
        }
      ],
      "name": "signDevice",
      "outputs": [
        {
          "name": "",
          "type": "uint256"
        }
      ],
      "payable": false,
      "stateMutability": "nonpayable",
      "type": "function"
    },
    {
      "constant": true,
      "inputs": [
        {
          "name": "",
          "type": "address"
        }
      ],
      "name": "ownerToEntity",
      "outputs": [
        {
          "name": "data",
          "type": "string"
        }
      ],
      "payable": false,
      "stateMutability": "view",
      "type": "function"
    },
    {
      "constant": true,
      "inputs": [
        {
          "name": "",
          "type": "uint256"
        }
      ],
      "name": "deviceSignatureCount",
      "outputs": [
        {
          "name": "",
          "type": "uint256"
        }
      ],
      "payable": false,
      "stateMutability": "view",
      "type": "function"
    },
    {
      "constant": true,
      "inputs": [
        {
          "name": "_deviceId",
          "type": "uint256"
        },
        {
          "name": "_firmwareHash",
          "type": "bytes32"
        }
      ],
      "name": "isValidFirmwareHash",
      "outputs": [
        {
          "name": "",
          "type": "bool"
        }
      ],
      "payable": false,
      "stateMutability": "view",
      "type": "function"
    },
    {
      "constant": true,
      "inputs": [
        {
          "name": "_deviceId",
          "type": "uint256"
        },
        {
          "name": "_proof",
          "type": "bytes32[]"
        },
        {
          "name": "_leaf",
          "type": "bytes32"
        }
      ],
      "name": "isValidMetadataMember",
      "outputs": [
        {
          "name": "",
          "type": "bool"
        }
      ],
      "payable": false,
      "stateMutability": "view",
      "type": "function"
    },
    {
      "constant": false,
      "inputs": [
        {
          "name": "_deviceId",
          "type": "uint256"
        },
        {
          "name": "_to",
          "type": "address"
        }
      ],
      "name": "transferDevice",
      "outputs": [],
      "payable": false,
      "stateMutability": "nonpayable",
      "type": "function"
    },
    {
      "anonymous": false,
      "inputs": [
        {
          "indexed": true,
          "name": "deviceId",
          "type": "uint256"
        },
        {
          "indexed": false,
          "name": "oldOwner",
          "type": "address"
        },
        {
          "indexed": false,
          "name": "newOwner",
          "type": "address"
        }
      ],
      "name": "DeviceTransfered",
      "type": "event"
    },
    {
      "anonymous": false,
      "inputs": [
        {
          "indexed": true,
          "name": "deviceId",
          "type": "uint256"
        },
        {
          "indexed": true,
          "name": "property",
          "type": "bytes32"
        },
        {
          "indexed": false,
          "name": "newValue",
          "type": "bytes32"
        }
      ],
      "name": "DevicePropertyUpdated",
      "type": "event"
    },
    {
      "anonymous": false,
      "inputs": [
        {
          "indexed": true,
          "name": "signatureId",
          "type": "uint256"
        },
        {
          "indexed": true,
          "name": "deviceId",
          "type": "uint256"
        },
        {
          "indexed": true,
          "name": "signer",
          "type": "address"
        },
        {
          "indexed": false,
          "name": "expiryTime",
          "type": "uint256"
        }
      ],
      "name": "DeviceSigned",
      "type": "event"
    },
    {
      "anonymous": false,
      "inputs": [
        {
          "indexed": true,
          "name": "signatureId",
          "type": "uint256"
        },
        {
          "indexed": true,
          "name": "deviceId",
          "type": "uint256"
        }
      ],
      "name": "SignatureRevoked",
      "type": "event"
    },
    {
      "anonymous": false,
      "inputs": [
        {
          "indexed": true,
          "name": "deviceId",
          "type": "uint256"
        },
        {
          "indexed": true,
          "name": "owner",
          "type": "address"
        },
        {
          "indexed": false,
          "name": "identifier",
          "type": "bytes32"
        },
        {
          "indexed": false,
          "name": "metadataHash",
          "type": "bytes32"
        },
        {
          "indexed": false,
          "name": "firmwareHash",
          "type": "bytes32"
        }
      ],
      "name": "DeviceCreated",
      "type": "event"
    },
    {
      "anonymous": false,
      "inputs": [
        {
          "indexed": true,
          "name": "owner",
          "type": "address"
        },
        {
          "indexed": false,
          "name": "newData",
          "type": "string"
        }
      ],
      "name": "EntityDataUpdated",
      "type": "event"
    }
  ],
  "bytecode": "0x608060405234801561001057600080fd5b50612210806100206000396000f300608060405260043610610107576000357c0100000000000000000000000000000000000000000000000000000000900463ffffffff16806307f637001461010c5780630bcb88e81461014757806310ff8e311461018c5780632a08e601146102265780633da1f79a1461027d5780634840c63b146102aa57806351b0e9871461030b578063533293ab146103a35780635a3f79d2146103de5780636231fb0b146104475780638be10194146104825780638e9075be146105085780639de9662d146105a1578063aa554c9d14610623578063acbcb5071461066e578063b0bd9fda1461072a578063b22d439d1461076b578063c40613df146107be578063ee23578314610854575b600080fd5b34801561011857600080fd5b506101456004803603810190808035906020019092919080356000191690602001909291905050506108a1565b005b34801561015357600080fd5b5061017260048036038101908080359060200190929190505050610aa1565b604051808215151515815260200191505060405180910390f35b34801561019857600080fd5b506101b760048036038101908080359060200190929190505050610b3d565b604051808573ffffffffffffffffffffffffffffffffffffffff1673ffffffffffffffffffffffffffffffffffffffff16815260200184600019166000191681526020018360001916600019168152602001826000191660001916815260200194505050505060405180910390f35b34801561023257600080fd5b50610267600480360381019080803573ffffffffffffffffffffffffffffffffffffffff169060200190929190505050610b9c565b6040518082815260200191505060405180910390f35b34801561028957600080fd5b506102a860048036038101908080359060200190929190505050610bb4565b005b3480156102b657600080fd5b506102f5600480360381019080803560001916906020019092919080356000191690602001909291908035600019169060200190929190505050610e28565b6040518082815260200191505060405180910390f35b34801561031757600080fd5b5061034c600480360381019080803573ffffffffffffffffffffffffffffffffffffffff169060200190929190505050610ff7565b6040518080602001828103825283818151815260200191508051906020019060200280838360005b8381101561038f578082015181840152602081019050610374565b505050509050019250505060405180910390f35b3480156103af57600080fd5b506103dc600480360381019080803590602001909291908035600019169060200190929190505050611136565b005b3480156103ea57600080fd5b50610445600480360381019080803590602001908201803590602001908080601f0160208091040260200160405190810160405280939291908181526020018383808284378201915050505050509192919290505050611336565b005b34801561045357600080fd5b50610480600480360381019080803590602001909291908035600019169060200190929190505050611442565b005b34801561048e57600080fd5b506104ad60048036038101908080359060200190929190505050611642565b604051808573ffffffffffffffffffffffffffffffffffffffff1673ffffffffffffffffffffffffffffffffffffffff1681526020018481526020018381526020018215151515815260200194505050505060405180910390f35b34801561051457600080fd5b50610587600480360381019080803590602001909291908035600019169060200190929190803590602001908201803590602001908080601f01602080910402602001604051908101604052809392919081815260200183838082843782019150505050505091929192905050506116ae565b604051808215151515815260200191505060405180910390f35b3480156105ad57600080fd5b506105cc60048036038101908080359060200190929190505050611715565b6040518080602001828103825283818151815260200191508051906020019060200280838360005b8381101561060f5780820151818401526020810190506105f4565b505050509050019250505060405180910390f35b34801561062f57600080fd5b506106586004803603810190808035906020019092919080359060200190929190505050611819565b6040518082815260200191505060405180910390f35b34801561067a57600080fd5b506106af600480360381019080803573ffffffffffffffffffffffffffffffffffffffff169060200190929190505050611990565b6040518080602001828103825283818151815260200191508051906020019080838360005b838110156106ef5780820151818401526020810190506106d4565b50505050905090810190601f16801561071c5780820380516001836020036101000a031916815260200191505b509250505060405180910390f35b34801561073657600080fd5b5061075560048036038101908080359060200190929190505050611a46565b6040518082815260200191505060405180910390f35b34801561077757600080fd5b506107a4600480360381019080803590602001909291908035600019169060200190929190505050611a5e565b604051808215151515815260200191505060405180910390f35b3480156107ca57600080fd5b5061083a60048036038101908080359060200190929190803590602001908201803590602001908080602002602001604051908101604052809392919081815260200183836020028082843782019150505050505091929192908035600019169060200190929190505050611a93565b604051808215151515815260200191505060405180910390f35b34801561086057600080fd5b5061089f60048036038101908080359060200190929190803573ffffffffffffffffffffffffffffffffffffffff169060200190929190505050611ac9565b005b813373ffffffffffffffffffffffffffffffffffffffff166001828154811015156108c857fe5b906000526020600020906004020160000160009054906101000a900473ffffffffffffffffffffffffffffffffffffffff1673ffffffffffffffffffffffffffffffffffffffff16141515610985576040517f08c379a00000000000000000000000000000000000000000000000000000000081526004018080602001828103825260158152602001807f4f6e6c7920666f7220646576696365206f776e6572000000000000000000000081525060200191505060405180910390fd5b8260006004600083815260200190815260200160002054141515610a11576040517f08c379a00000000000000000000000000000000000000000000000000000000081526004018080602001828103825260128152602001807f4d757374206e6f74206265207369676e6564000000000000000000000000000081525060200191505060405180910390fd5b82600185815481101515610a2157fe5b906000526020600020906004020160020181600019169055507f6d65746164617461000000000000000000000000000000000000000000000000847f67ace838aca3988a026b61036d72b93a8316d05feecb6ee10316e8d59f0e687f8560405180826000191660001916815260200191505060405180910390a350505050565b6000600182815481101515610ab257fe5b9060005260206000209060040201600101546001900473ffffffffffffffffffffffffffffffffffffffff16600183815481101515610aed57fe5b906000526020600020906004020160000160009054906101000a900473ffffffffffffffffffffffffffffffffffffffff1673ffffffffffffffffffffffffffffffffffffffff16149050919050565b600181815481101515610b4c57fe5b90600052602060002090600402016000915090508060000160009054906101000a900473ffffffffffffffffffffffffffffffffffffffff16908060010154908060020154908060030154905084565b60026020528060005260406000206000915090505481565b60003373ffffffffffffffffffffffffffffffffffffffff16600383815481101515610bdc57fe5b906000526020600020906004020160000160009054906101000a900473ffffffffffffffffffffffffffffffffffffffff1673ffffffffffffffffffffffffffffffffffffffff16141515610cbf576040517f08c379a00000000000000000000000000000000000000000000000000000000081526004018080602001828103825260218152602001807f4f6e6c7920666f722063726561746f72206f6620746865207369676e6174757281526020017f650000000000000000000000000000000000000000000000000000000000000081525060400191505060405180910390fd5b60001515600383815481101515610cd257fe5b906000526020600020906004020160030160009054906101000a900460ff161515141515610d8e576040517f08c379a00000000000000000000000000000000000000000000000000000000081526004018080602001828103825260248152602001807f5369676e6174757265206d7573746e2774206265207265766f6b656420616c7281526020017f656164790000000000000000000000000000000000000000000000000000000081525060400191505060405180910390fd5b600382815481101515610d9d57fe5b9060005260206000209060040201905060018160030160006101000a81548160ff021916908315150217905550600460008260010154815260200190815260200160002060008154809291906001900391905055508060010154827ff93d5095ac7696e643e1fa0aa35d622f4a13e11f4e199f30794679dcdcdb973760405160405180910390a35050565b6000610e326120b6565b60006080604051908101604052803373ffffffffffffffffffffffffffffffffffffffff168152602001876000191681526020018660001916815260200185600019168152509150600180839080600181540180825580915050906001820390600052602060002090600402016000909192909190915060008201518160000160006101000a81548173ffffffffffffffffffffffffffffffffffffffff021916908373ffffffffffffffffffffffffffffffffffffffff1602179055506020820151816001019060001916905560408201518160020190600019169055606082015181600301906000191690555050039050600260003373ffffffffffffffffffffffffffffffffffffffff1673ffffffffffffffffffffffffffffffffffffffff168152602001908152602001600020600081548092919060010191905055503373ffffffffffffffffffffffffffffffffffffffff16817f093aad13dfa930f4f2311a7f59be1c3674ccc072b729756c22447948a2c0520088888860405180846000191660001916815260200183600019166000191681526020018260001916600019168152602001935050505060405180910390a380925050509392505050565b606080600080600260008673ffffffffffffffffffffffffffffffffffffffff1673ffffffffffffffffffffffffffffffffffffffff1681526020019081526020016000205460405190808252806020026020018201604052801561106b5781602001602082028038833980820191505090505b50925060009150600090505b60018054905081101561112b578473ffffffffffffffffffffffffffffffffffffffff166001828154811015156110aa57fe5b906000526020600020906004020160000160009054906101000a900473ffffffffffffffffffffffffffffffffffffffff1673ffffffffffffffffffffffffffffffffffffffff16141561111e5780838381518110151561110757fe5b906020019060200201818152505081806001019250505b8080600101915050611077565b829350505050919050565b813373ffffffffffffffffffffffffffffffffffffffff1660018281548110151561115d57fe5b906000526020600020906004020160000160009054906101000a900473ffffffffffffffffffffffffffffffffffffffff1673ffffffffffffffffffffffffffffffffffffffff1614151561121a576040517f08c379a00000000000000000000000000000000000000000000000000000000081526004018080602001828103825260158152602001807f4f6e6c7920666f7220646576696365206f776e6572000000000000000000000081525060200191505060405180910390fd5b82600060046000838152602001908152602001600020541415156112a6576040517f08c379a00000000000000000000000000000000000000000000000000000000081526004018080602001828103825260128152602001807f4d757374206e6f74206265207369676e6564000000000000000000000000000081525060200191505060405180910390fd5b826001858154811015156112b657fe5b906000526020600020906004020160010181600019169055507f6964656e74696669657200000000000000000000000000000000000000000000847f67ace838aca3988a026b61036d72b93a8316d05feecb6ee10316e8d59f0e687f8560405180826000191660001916815260200191505060405180910390a350505050565b806000803373ffffffffffffffffffffffffffffffffffffffff1673ffffffffffffffffffffffffffffffffffffffff168152602001908152602001600020600001908051906020019061138b9291906120fe565b503373ffffffffffffffffffffffffffffffffffffffff167f53d207b6cf416d44764c48a52a7e64ffa2793f67215d452a032a11e0dd34bd2c826040518080602001828103825283818151815260200191508051906020019080838360005b838110156114055780820151818401526020810190506113ea565b50505050905090810190601f1680156114325780820380516001836020036101000a031916815260200191505b509250505060405180910390a250565b813373ffffffffffffffffffffffffffffffffffffffff1660018281548110151561146957fe5b906000526020600020906004020160000160009054906101000a900473ffffffffffffffffffffffffffffffffffffffff1673ffffffffffffffffffffffffffffffffffffffff16141515611526576040517f08c379a00000000000000000000000000000000000000000000000000000000081526004018080602001828103825260158152602001807f4f6e6c7920666f7220646576696365206f776e6572000000000000000000000081525060200191505060405180910390fd5b82600060046000838152602001908152602001600020541415156115b2576040517f08c379a00000000000000000000000000000000000000000000000000000000081526004018080602001828103825260128152602001807f4d757374206e6f74206265207369676e6564000000000000000000000000000081525060200191505060405180910390fd5b826001858154811015156115c257fe5b906000526020600020906004020160030181600019169055507f6669726d77617265000000000000000000000000000000000000000000000000847f67ace838aca3988a026b61036d72b93a8316d05feecb6ee10316e8d59f0e687f8560405180826000191660001916815260200191505060405180910390a350505050565b60038181548110151561165157fe5b90600052602060002090600402016000915090508060000160009054906101000a900473ffffffffffffffffffffffffffffffffffffffff16908060010154908060020154908060030160009054906101000a900460ff16905084565b60006001848154811015156116bf57fe5b9060005260206000209060040201600101546001900473ffffffffffffffffffffffffffffffffffffffff166116f58484611e1b565b73ffffffffffffffffffffffffffffffffffffffff161490509392505050565b606080600080600460008681526020019081526020016000205460405190808252806020026020018201604052801561175d5781602001602082028038833980820191505090505b50925060009150600090505b60038054905081101561180e578460038281548110151561178657fe5b9060005260206000209060040201600101541480156117d65750600015156003828154811015156117b357fe5b906000526020600020906004020160030160009054906101000a900460ff161515145b15611801578083838151811015156117ea57fe5b906020019060200201818152505081806001019250505b8080600101915050611769565b829350505050919050565b600061182361217e565b60006080604051908101604052803373ffffffffffffffffffffffffffffffffffffffff16815260200186815260200185815260200160001515815250915060016003839080600181540180825580915050906001820390600052602060002090600402016000909192909190915060008201518160000160006101000a81548173ffffffffffffffffffffffffffffffffffffffff021916908373ffffffffffffffffffffffffffffffffffffffff160217905550602082015181600101556040820151816002015560608201518160030160006101000a81548160ff021916908315150217905550505003905060046000868152602001908152602001600020600081548092919060010191905055503373ffffffffffffffffffffffffffffffffffffffff1685827f3739f348a11e3a029a385b4746ea6edba7f01ceec207010638e9d17862b78c40876040518082815260200191505060405180910390a4809250505092915050565b6000602052806000526040600020600091509050806000018054600181600116156101000203166002900480601f016020809104026020016040519081016040528092919081815260200182805460018160011615610100020316600290048015611a3c5780601f10611a1157610100808354040283529160200191611a3c565b820191906000526020600020905b815481529060010190602001808311611a1f57829003601f168201915b5050505050905081565b60046020528060005260406000206000915090505481565b60008160001916600184815481101515611a7457fe5b9060005260206000209060040201600301546000191614905092915050565b6000611ac083600186815481101515611aa857fe5b90600052602060002090600402016002015484611f13565b90509392505050565b6000823373ffffffffffffffffffffffffffffffffffffffff16600182815481101515611af257fe5b906000526020600020906004020160000160009054906101000a900473ffffffffffffffffffffffffffffffffffffffff1673ffffffffffffffffffffffffffffffffffffffff16141515611baf576040517f08c379a00000000000000000000000000000000000000000000000000000000081526004018080602001828103825260158152602001807f4f6e6c7920666f7220646576696365206f776e6572000000000000000000000081525060200191505060405180910390fd5b8360006004600083815260200190815260200160002054141515611c3b576040517f08c379a00000000000000000000000000000000000000000000000000000000081526004018080602001828103825260128152602001807f4d757374206e6f74206265207369676e6564000000000000000000000000000081525060200191505060405180910390fd5b600185815481101515611c4a57fe5b906000526020600020906004020160000160009054906101000a900473ffffffffffffffffffffffffffffffffffffffff16925083600186815481101515611c8e57fe5b906000526020600020906004020160000160006101000a81548173ffffffffffffffffffffffffffffffffffffffff021916908373ffffffffffffffffffffffffffffffffffffffff160217905550600260003373ffffffffffffffffffffffffffffffffffffffff1673ffffffffffffffffffffffffffffffffffffffff1681526020019081526020016000206000815480929190600190039190505550600260008573ffffffffffffffffffffffffffffffffffffffff1673ffffffffffffffffffffffffffffffffffffffff16815260200190815260200160002060008154809291906001019190505550847f848155b8e733cfd6e7258639111d906437ddb051818f4061fc4c7cfbc575cb2e8486604051808373ffffffffffffffffffffffffffffffffffffffff1673ffffffffffffffffffffffffffffffffffffffff1681526020018273ffffffffffffffffffffffffffffffffffffffff1673ffffffffffffffffffffffffffffffffffffffff1681526020019250505060405180910390a25050505050565b60008060008060418551141515611e355760009350611f0a565b6020850151925060408501519150606085015160001a9050601b8160ff161015611e6057601b810190505b601b8160ff1614158015611e785750601c8160ff1614155b15611e865760009350611f0a565b600186828585604051600081526020016040526040518085600019166000191681526020018460ff1660ff1681526020018360001916600019168152602001826000191660001916815260200194505050505060206040516020810390808403906000865af1158015611efd573d6000803e3d6000fd5b5050506020604051035193505b50505092915050565b600080600080849250600091505b865182101561209f578682815181101515611f3857fe5b906020019060200201519050806000191683600019161015611ff55782816040516020018083600019166000191681526020018260001916600019168152602001925050506040516020818303038152906040526040518082805190602001908083835b602083101515611fc15780518252602082019150602081019050602083039250611f9c565b6001836020036101000a03801982511681845116808217855250505050505090500191505060405180910390209250612092565b80836040516020018083600019166000191681526020018260001916600019168152602001925050506040516020818303038152906040526040518082805190602001908083835b602083101515612062578051825260208201915060208101905060208303925061203d565b6001836020036101000a038019825116818451168082178552505050505050905001915050604051809103902092505b8180600101925050611f21565b856000191683600019161493505050509392505050565b608060405190810160405280600073ffffffffffffffffffffffffffffffffffffffff1681526020016000801916815260200160008019168152602001600080191681525090565b828054600181600116156101000203166002900490600052602060002090601f016020900481019282601f1061213f57805160ff191683800117855561216d565b8280016001018555821561216d579182015b8281111561216c578251825591602001919060010190612151565b5b50905061217a91906121bf565b5090565b608060405190810160405280600073ffffffffffffffffffffffffffffffffffffffff16815260200160008152602001600081526020016000151581525090565b6121e191905b808211156121dd5760008160009055506001016121c5565b5090565b905600a165627a7a72305820d1a2915e37a297c21579259a0b8aefd2267ef56adf3607a27aa0ec4208701cb00029",
  "source": "pragma solidity ^0.4.24;\n\nimport \"./MerkleProof.sol\";\nimport \"./ECRecovery.sol\";\n\n/**\n * @title Provides base functionalities for entities.\n */\ncontract EntityBase {\n    /// @dev Entity in the device management system.\n    struct Entity {\n        // Arbitary data in case entity wants to have some public information available.\n        string data;\n    }\n\n    /// @notice Maps owner to an Entity structure.\n    mapping (address => Entity) public ownerToEntity;\n\n    /// @dev Fired on entity data update.\n    event EntityDataUpdated(address indexed owner, string newData);\n\n    /**\n     * @notice Update entity data.\n     * @param _data Entity data.\n     */\n    function updateEntityData(string _data) public {\n        ownerToEntity[msg.sender].data = _data;\n\n        emit EntityDataUpdated(msg.sender, _data);\n    }\n}\n\n/**\n * @title Provides base functionalities for devices.\n */\ncontract DeviceBase {\n    /// @dev Main device structucture.\n    struct Device {\n        // Ethereum address of a device owner.\n        address owner;\n\n        // Unique device identifier. Can hold anything that fits into 32 bytes. Different from device ID.\n        // Supposed to be a public key or a representation of one, such as fingerprint of RSA/ECC \n        // public key or simply an Ethereum address. To make identifier be an Ethereum address, \n        // use secp256k1 curve to generate public and private key pair, run keccak256 hash function\n        // on public key and take last 20 bytes of generated hash to get Ethereum address.\n        // If a device wants to be it's own entity, use same address as in owner property.\n        bytes32 identifier;\n        \n        // Merkle root hash of metadata or simple hash of concatenated data.\n        // It is recommended to use Merkle tree to store information on device as it enables to \n        // prove membership of specific data by providing Merkle proof without revealing whole dataset.\n        bytes32 metadataHash;\n\n        // Holds a hash of actual firmware hash. Actual firmware hash is not supposed to be stored.\n        // Plain text or hash would expose data that is meant to be private, so \"hash of hash\" principle \n        // gives privacy and makes integrity verification possible.\n        bytes32 firmwareHash;\n\n        // Additional data linked to device. Can be used to store hash of encrypted firmware on IPFS.\n        //string offchainLink;\n\n        // Full public key (even though parties can exchange public key other ways then use\n        // blockchain to verify.)\n        //string publicKey;\n    }\n    \n    /// @notice State variable for storing devices. Index in the array is also a device ID.\n    /// Array can hold a maximum of 2^256-1 entries.\n    Device[] public devices;\n\n    /// @notice Keeps track of total devices for each owner.\n    mapping (address => uint) public ownerDeviceCount;\n\n    /// @dev Fired on creation of new device.\n    event DeviceCreated(uint indexed deviceId, address indexed owner, bytes32 identifier, bytes32 metadataHash, bytes32 firmwareHash);\n\n    /// @dev Modifier for ensuring that the message sender is owner of provided device ID.\n    modifier onlyOwnerOf(uint _deviceId) {\n        require(devices[_deviceId].owner == msg.sender, \"Only for device owner\");\n        _;\n    }\n\n    /**\n     * @notice Creates and saves device into storage. Emits DeviceCreated. \n     * @param _identifier Unique device identifier, such as fingerprint of RSA/ECC public key or Ethereum address (recommended).\n     * @param _metadataHash Merkle root hash of metadata (recommended) or simple hash of concatenated metadata.\n     * @param _firmwareHash Hash of actual firmware hash.\n     * @return Created device ID.\n     */\n    function createDevice(bytes32 _identifier, bytes32 _metadataHash, bytes32 _firmwareHash) public returns (uint) {\n        Device memory newDevice = Device(msg.sender, _identifier, _metadataHash, _firmwareHash);\n        uint deviceId = devices.push(newDevice) - 1;\n        ownerDeviceCount[msg.sender]++;\n\n        emit DeviceCreated(deviceId, msg.sender, _identifier, _metadataHash, _firmwareHash);\n        return deviceId;\n    }\n}\n\n/**\n * @title Provides extra functionalities for devices.\n */\ncontract DeviceHelper is DeviceBase {\n   /**\n     * @notice Gets all devices owned by specified address. \n     * @dev Use this function instead of filtering DeviceCreated event since devices could have been transferred between owners.\n     * @param _owner Owner address.\n     * @return Array of device IDs.\n     */\n    function getDevicesByOwner(address _owner) public view returns (uint[]) {\n        uint[] memory deviceIds = new uint[](ownerDeviceCount[_owner]);\n        uint counter = 0;\n        for (uint i = 0; i < devices.length; i++) {\n            if (devices[i].owner == _owner) {\n                deviceIds[counter] = i;\n                counter++;\n            }\n        }\n        return deviceIds;\n    }\n\n    /**\n     * @notice Checks if device is also an entity. \n     * @param _deviceId ID of a  device.\n     * @return Boolean status.\n     */\n    function isDeviceAnEntity(uint _deviceId) public view returns (bool) {\n        return devices[_deviceId].owner == address(devices[_deviceId].identifier);\n    }\n\n    /**\n     * @notice Checks if provided leaf is a member of metadata contained in Merkle tree. \n     * Assumes that each pair of leaves and each pair of pre-images are sorted.\n     * @param _deviceId ID of a device containing metadata hash.\n     * @param _proof Merkle proof containing sibling hashes on the branch from the leaf to the root of the Merkle tree.\n     * @param _leaf Leaf of Merkle tree.\n     * @return Boolean status.\n     */\n    function isValidMetadataMember(uint _deviceId, bytes32[] _proof, bytes32 _leaf) public view returns (bool) {\n        return MerkleProof.verifyProof(_proof, devices[_deviceId].metadataHash, _leaf);\n    }\n\n    /**\n     * @notice Checks if provided firmware hash is equal to firmware hash device property. \n     * @param _deviceId ID of a device containing firmware hash.\n     * @param _firmwareHash Firmware hash (not the actual hash).\n     * @return Boolean status.\n     */\n    function isValidFirmwareHash(uint _deviceId, bytes32 _firmwareHash) public view returns (bool) {\n        return devices[_deviceId].firmwareHash == _firmwareHash;\n    }\n\n    /**\n     * @notice Validate authenticity of message signed by Etherium private key.\n     * On-chain validation is available only for Ethereum signed messages.\n     * @param _deviceId ID of a device that signed the message.\n     * @param _messageHash Hash of sent message.\n     * @param _signature Signature generated using web3.eth.sign().\n     * @return Boolean status.\n     */\n    function isValidEthMessage(uint _deviceId, bytes32 _messageHash, bytes _signature) public view returns (bool) {\n        return ECRecovery.recover(_messageHash, _signature) == address(devices[_deviceId].identifier);\n    }\n}\n\n/**\n * @title Provides base functionalities for signatures.\n */\ncontract SignatureBase {\n    /// @dev Main signature structucture.\n    struct Signature {\n        // Ethereum address of the signer.\n        address signer;\n\n        // ID of device to sign.\n        uint deviceId;\n\n        // Using 256 bits ensures no overflow on year 2038 (Unix seconds).\n        uint expiryTime;\n\n        // Updates to true once signer decides to revoke signature.\n        bool revoked;\n    }\n\n    /// @notice State variable for storing signatures. Index in the array is also a signature ID.\n    /// Array can hold a maximum of 2^256-1 entries.\n    Signature[] public signatures;\n\n    /// @notice Keeps track of total signatures for each device.\n    mapping (uint => uint) public deviceSignatureCount;\n    \n    /// @dev Fired when an address signs a device.\n    event DeviceSigned(uint indexed signatureId, uint indexed deviceId, address indexed signer, uint expiryTime);\n\n    /// @dev Fired when signature is revoked.\n    event SignatureRevoked(uint indexed signatureId, uint indexed deviceId);\n\n    /// @dev Modifier for ensuring that the device hasn't been signed already.\n    modifier notSigned(uint _deviceId) {\n        require(deviceSignatureCount[_deviceId] == 0, \"Must not be signed\");\n        _;\n    }\n\n    /**\n     * @notice Signs a device and signature into storage. Emits DeviceSigned. \n     * @param _deviceId ID of to be signed device.\n     * @param _expiryTime Expiry time in Unix seconds.\n     * @return Created signature ID.\n     */\n    function signDevice(uint _deviceId, uint _expiryTime) public returns (uint) {\n        Signature memory signature = Signature(msg.sender, _deviceId, _expiryTime, false);\n        uint signatureId = signatures.push(signature) - 1;\n        deviceSignatureCount[_deviceId]++;\n\n        emit DeviceSigned(signatureId, _deviceId, msg.sender, _expiryTime);\n        return signatureId;\n    }\n\n    /**\n     * @notice Revokes a signature. Emits SignatureRevoked. \n     * @param _signatureId ID of to be revoked signature.\n     */\n    function revokeSignature(uint _signatureId) public {\n        require(signatures[_signatureId].signer == msg.sender, \"Only for creator of the signature\");\n        require(signatures[_signatureId].revoked == false, \"Signature mustn't be revoked already\");\n        Signature storage signature = signatures[_signatureId];\n        signature.revoked = true;\n        deviceSignatureCount[signature.deviceId]--;\n\n        emit SignatureRevoked(_signatureId, signature.deviceId);\n    }\n}\n\n/**\n * @title Provides extra functionalities for signatures.\n */\ncontract SignatureHelper is SignatureBase {\n    /**\n     * @notice Gets all signatures for specific device. \n     * @dev Use this function instead of filtering DeviceSigned event since signatures could have been revoked.\n     * @param _deviceId ID of a device.\n     * @return Array of signature IDs.\n     */\n    function getActiveSignaturesForDevice(uint _deviceId) public view returns (uint[]) {\n        uint[] memory signatureIds = new uint[](deviceSignatureCount[_deviceId]);\n        uint counter = 0;\n        for (uint i = 0; i < signatures.length; i++) {\n            if (signatures[i].deviceId == _deviceId && signatures[i].revoked == false) {\n                signatureIds[counter] = i;\n                counter++;\n            }\n        }\n        return signatureIds;\n    }\n}\n\n/**\n * @title Enriches devices giving them option to be updated only if not signed already.\n */\ncontract DeviceUpdatable is DeviceHelper, SignatureHelper {\n    /// @dev Fired on device ownership transfer, keeps track of historical device owners.\n    event DeviceTransfered(uint indexed deviceId, address oldOwner, address newOwner);\n    \n    /// @dev Fired on device property update, keeps track of historical property values.\n    event DevicePropertyUpdated(uint indexed deviceId, bytes32 indexed property, bytes32 newValue);\n\n    /**\n     * @notice Transfer device ownership from one external account to another. Emits DeviceTransfered.\n     * @param _deviceId ID of to be transfered device.\n     * @param _to Address of new owner.\n     */\n    function transferDevice(uint _deviceId, address _to) public onlyOwnerOf(_deviceId) notSigned(_deviceId) {\n        address currentOwner = devices[_deviceId].owner;\n        devices[_deviceId].owner = _to;\n        ownerDeviceCount[msg.sender]--;\n        ownerDeviceCount[_to]++;\n\n        emit DeviceTransfered(_deviceId, currentOwner, _to);\n    } \n\n    /**\n     * @notice Update device with new identifier. Emits DevicePropertyUpdated.\n     * @param _deviceId ID of a device.\n     * @param _newIdentifier New identifier.\n     */\n    function updateIdentifier(uint _deviceId, bytes32 _newIdentifier) public onlyOwnerOf(_deviceId) notSigned(_deviceId) {\n        devices[_deviceId].identifier = _newIdentifier;\n\n        emit DevicePropertyUpdated(_deviceId, \"identifier\", _newIdentifier);\n    }\n\n    /**\n     * @notice Update device with new metadata hash. Emits DevicePropertyUpdated.\n     * @param _deviceId ID of a device.\n     * @param _newMetadataHash New metadata hash.\n     */\n    function updateMetadataHash(uint _deviceId, bytes32 _newMetadataHash) public onlyOwnerOf(_deviceId) notSigned(_deviceId) {\n        devices[_deviceId].metadataHash = _newMetadataHash;\n\n        emit DevicePropertyUpdated(_deviceId, \"metadata\", _newMetadataHash);\n    }\n\n    /**\n     * @notice Update device with new firmware hash. Emits DevicePropertyUpdated.\n     * @param _deviceId ID of a device.\n     * @param _newFirmwareHash New firmware hash.\n     */\n    function updateFirmwareHash(uint _deviceId, bytes32 _newFirmwareHash) public onlyOwnerOf(_deviceId) notSigned(_deviceId) {\n        devices[_deviceId].firmwareHash = _newFirmwareHash;\n\n        emit DevicePropertyUpdated(_deviceId, \"firmware\", _newFirmwareHash);\n    }\n}\n\n/// @title Device manager core contract.\ncontract DeviceManager is EntityBase, DeviceUpdatable {\n    /// @dev Merges contracts.\n}\n",
  "sourcePath": "/home/silvio/Projects/iot-device-management/contracts/DeviceManager.sol",
  "compiler": {
    "name": "solc",
    "version": "0.4.24+commit.e67f0147.Emscripten.clang"
  },
  "schemaVersion": "2.0.1",
  "updatedAt": "2018-12-23T15:58:20.437Z"
}